{
  "_format": "hh-sol-artifact-1",
  "contractName": "Guestbook",
  "sourceName": "contracts/Guestbook.sol",
  "abi": [
    {
      "inputs": [],
      "name": "maxNumSignatures",
      "outputs": [
        {
          "internalType": "uint256",
          "name": "",
          "type": "uint256"
        }
      ],
      "stateMutability": "view",
      "type": "function"
    }
  ],
  "bytecode": "0x608060405234801561001057600080fd5b5060b28061001f6000396000f3fe6080604052348015600f57600080fd5b506004361060285760003560e01c8063c39e341014602d575b600080fd5b60336047565b604051603e91906063565b60405180910390f35b60c881565b6000819050919050565b605d81604c565b82525050565b6000602082019050607660008301846056565b9291505056fea2646970667358221220a24919f34c0e2dbe1c3df132622483d7f260d843f342e0ed47b04a2e620bdf9864736f6c63430008110033",
  "linkReferences": {},
  "deployedLinkReferences": {}
}