{
  "_format": "hh-sol-artifact-1",
  "contractName": "Guestbook",
  "sourceName": "contracts/Guestbook.sol",
  "abi": [
    {
      "inputs": [
        {
          "internalType": "uint8",
          "name": "_maxNumberOfSignatures",
          "type": "uint8"
        }
      ],
      "stateMutability": "nonpayable",
      "type": "constructor"
    },
    {
      "anonymous": false,
      "inputs": [
        {
          "indexed": true,
          "internalType": "address",
          "name": "sender",
          "type": "address"
        },
        {
          "indexed": false,
          "internalType": "string",
          "name": "message",
          "type": "string"
        }
      ],
      "name": "SignatureAdded",
      "type": "event"
    },
    {
      "inputs": [
        {
          "internalType": "address",
          "name": "",
          "type": "address"
        }
      ],
      "name": "guestbookSignatures",
      "outputs": [
        {
          "internalType": "address",
          "name": "id",
          "type": "address"
        },
        {
          "internalType": "string",
          "name": "name",
          "type": "string"
        },
        {
          "internalType": "string",
          "name": "message",
          "type": "string"
        },
        {
          "internalType": "uint256",
          "name": "time",
          "type": "uint256"
        }
      ],
      "stateMutability": "view",
      "type": "function"
    },
    {
      "inputs": [],
      "name": "maxNumberOfSignatures",
      "outputs": [
        {
          "internalType": "uint8",
          "name": "",
          "type": "uint8"
        }
      ],
      "stateMutability": "view",
      "type": "function"
    },
    {
      "inputs": [],
      "name": "numberOfSignatures",
      "outputs": [
        {
          "internalType": "uint8",
          "name": "",
          "type": "uint8"
        }
      ],
      "stateMutability": "view",
      "type": "function"
    },
    {
      "inputs": [
        {
          "internalType": "string",
          "name": "_name",
          "type": "string"
        },
        {
          "internalType": "string",
          "name": "_message",
          "type": "string"
        }
      ],
      "name": "signGuestbook",
      "outputs": [],
      "stateMutability": "nonpayable",
      "type": "function"
    }
  ],
  "bytecode": "0x608060405234801561001057600080fd5b50604051610e4a380380610e4a83398181016040528101906100329190610090565b806000806101000a81548160ff021916908360ff160217905550506100bd565b600080fd5b600060ff82169050919050565b61006d81610057565b811461007857600080fd5b50565b60008151905061008a81610064565b92915050565b6000602082840312156100a6576100a5610052565b5b60006100b48482850161007b565b91505092915050565b610d7e806100cc6000396000f3fe608060405234801561001057600080fd5b506004361061004c5760003560e01c80630ffcb0701461005157806329fd8a121461006d57806352dbaba31461008b578063737ae761146100a9575b600080fd5b61006b60048036038101906100669190610622565b6100dc565b005b610075610344565b60405161008291906106b6565b60405180910390f35b610093610355565b6040516100a091906106b6565b60405180910390f35b6100c360048036038101906100be919061072f565b610368565b6040516100d39493929190610803565b60405180910390f35b60008054906101000a900460ff1660ff16600060019054906101000a900460ff1660ff1610610140576040517f08c379a0000000000000000000000000000000000000000000000000000000008152600401610137906108a2565b60405180910390fd5b6000825111610184576040517f08c379a000000000000000000000000000000000000000000000000000000000815260040161017b9061090e565b60405180910390fd5b60008151116101c8576040517f08c379a00000000000000000000000000000000000000000000000000000000081526004016101bf9061097a565b60405180910390fd5b60405180608001604052803373ffffffffffffffffffffffffffffffffffffffff16815260200183815260200182815260200142815250600160003373ffffffffffffffffffffffffffffffffffffffff1673ffffffffffffffffffffffffffffffffffffffff16815260200190815260200160002060008201518160000160006101000a81548173ffffffffffffffffffffffffffffffffffffffff021916908373ffffffffffffffffffffffffffffffffffffffff160217905550602082015181600101908161029a9190610ba6565b5060408201518160020190816102b09190610ba6565b50606082015181600301559050503373ffffffffffffffffffffffffffffffffffffffff167f1d3cd7843983de112f5334f98597875ce57f63bb42b5a231afb1792dd92227c460405161030290610cc4565b60405180910390a26001600060019054906101000a900460ff166103269190610d13565b600060016101000a81548160ff021916908360ff1602179055505050565b60008054906101000a900460ff1681565b600060019054906101000a900460ff1681565b60016020528060005260406000206000915090508060000160009054906101000a900473ffffffffffffffffffffffffffffffffffffffff16908060010180546103b1906109c9565b80601f01602080910402602001604051908101604052809291908181526020018280546103dd906109c9565b801561042a5780601f106103ff5761010080835404028352916020019161042a565b820191906000526020600020905b81548152906001019060200180831161040d57829003601f168201915b50505050509080600201805461043f906109c9565b80601f016020809104026020016040519081016040528092919081815260200182805461046b906109c9565b80156104b85780601f1061048d576101008083540402835291602001916104b8565b820191906000526020600020905b81548152906001019060200180831161049b57829003601f168201915b5050505050908060030154905084565b6000604051905090565b600080fd5b600080fd5b600080fd5b600080fd5b6000601f19601f8301169050919050565b7f4e487b7100000000000000000000000000000000000000000000000000000000600052604160045260246000fd5b61052f826104e6565b810181811067ffffffffffffffff8211171561054e5761054d6104f7565b5b80604052505050565b60006105616104c8565b905061056d8282610526565b919050565b600067ffffffffffffffff82111561058d5761058c6104f7565b5b610596826104e6565b9050602081019050919050565b82818337600083830152505050565b60006105c56105c084610572565b610557565b9050828152602081018484840111156105e1576105e06104e1565b5b6105ec8482856105a3565b509392505050565b600082601f830112610609576106086104dc565b5b81356106198482602086016105b2565b91505092915050565b60008060408385031215610639576106386104d2565b5b600083013567ffffffffffffffff811115610657576106566104d7565b5b610663858286016105f4565b925050602083013567ffffffffffffffff811115610684576106836104d7565b5b610690858286016105f4565b9150509250929050565b600060ff82169050919050565b6106b08161069a565b82525050565b60006020820190506106cb60008301846106a7565b92915050565b600073ffffffffffffffffffffffffffffffffffffffff82169050919050565b60006106fc826106d1565b9050919050565b61070c816106f1565b811461071757600080fd5b50565b60008135905061072981610703565b92915050565b600060208284031215610745576107446104d2565b5b60006107538482850161071a565b91505092915050565b610765816106f1565b82525050565b600081519050919050565b600082825260208201905092915050565b60005b838110156107a557808201518184015260208101905061078a565b60008484015250505050565b60006107bc8261076b565b6107c68185610776565b93506107d6818560208601610787565b6107df816104e6565b840191505092915050565b6000819050919050565b6107fd816107ea565b82525050565b6000608082019050610818600083018761075c565b818103602083015261082a81866107b1565b9050818103604083015261083e81856107b1565b905061084d60608301846107f4565b95945050505050565b7f546865206775657374626f6f6b2069732066696c6c6564210000000000000000600082015250565b600061088c601883610776565b915061089782610856565b602082019050919050565b600060208201905081810360008301526108bb8161087f565b9050919050565b7f506c6561736520656e74657220796f7572206e616d6521000000000000000000600082015250565b60006108f8601783610776565b9150610903826108c2565b602082019050919050565b60006020820190508181036000830152610927816108eb565b9050919050565b7f506c6561736520656e7465722061206d65737361676521000000000000000000600082015250565b6000610964601783610776565b915061096f8261092e565b602082019050919050565b6000602082019050818103600083015261099381610957565b9050919050565b7f4e487b7100000000000000000000000000000000000000000000000000000000600052602260045260246000fd5b600060028204905060018216806109e157607f821691505b6020821081036109f4576109f361099a565b5b50919050565b60008190508160005260206000209050919050565b60006020601f8301049050919050565b600082821b905092915050565b600060088302610a5c7fffffffffffffffffffffffffffffffffffffffffffffffffffffffffffffffff82610a1f565b610a668683610a1f565b95508019841693508086168417925050509392505050565b6000819050919050565b6000610aa3610a9e610a99846107ea565b610a7e565b6107ea565b9050919050565b6000819050919050565b610abd83610a88565b610ad1610ac982610aaa565b848454610a2c565b825550505050565b600090565b610ae6610ad9565b610af1818484610ab4565b505050565b5b81811015610b1557610b0a600082610ade565b600181019050610af7565b5050565b601f821115610b5a57610b2b816109fa565b610b3484610a0f565b81016020851015610b43578190505b610b57610b4f85610a0f565b830182610af6565b50505b505050565b600082821c905092915050565b6000610b7d60001984600802610b5f565b1980831691505092915050565b6000610b968383610b6c565b9150826002028217905092915050565b610baf8261076b565b67ffffffffffffffff811115610bc857610bc76104f7565b5b610bd282546109c9565b610bdd828285610b19565b600060209050601f831160018114610c105760008415610bfe578287015190505b610c088582610b8a565b865550610c70565b601f198416610c1e866109fa565b60005b82811015610c4657848901518255600182019150602085019450602081019050610c21565b86831015610c635784890151610c5f601f891682610b6c565b8355505b6001600288020188555050505b505050505050565b7f4775657374626f6f6b207369676e656421000000000000000000000000000000600082015250565b6000610cae601183610776565b9150610cb982610c78565b602082019050919050565b60006020820190508181036000830152610cdd81610ca1565b9050919050565b7f4e487b7100000000000000000000000000000000000000000000000000000000600052601160045260246000fd5b6000610d1e8261069a565b9150610d298361069a565b9250828201905060ff811115610d4257610d41610ce4565b5b9291505056fea26469706673582212204eb29735fb422e13dc335f27a663238950c521e772878ac03192649c87b9676e64736f6c63430008110033",
  "linkReferences": {},
  "deployedLinkReferences": {}
}