{
  "_format": "hh-sol-artifact-1",
  "contractName": "Guestbook",
  "sourceName": "contracts/Guestbook.sol",
  "abi": [
    {
      "inputs": [
        {
          "internalType": "uint8",
          "name": "_maxNumberOfSignatures",
          "type": "uint8"
        },
        {
          "internalType": "uint8",
          "name": "_maxLengthOfName",
          "type": "uint8"
        },
        {
          "internalType": "uint8",
          "name": "_maxLengthOfMessage",
          "type": "uint8"
        }
      ],
      "stateMutability": "nonpayable",
      "type": "constructor"
    },
    {
      "anonymous": false,
      "inputs": [
        {
          "indexed": true,
          "internalType": "address",
          "name": "sender",
          "type": "address"
        },
        {
          "indexed": false,
          "internalType": "string",
          "name": "message",
          "type": "string"
        }
      ],
      "name": "SignatureAdded",
      "type": "event"
    },
    {
      "inputs": [],
      "name": "getGuestbookSignatures",
      "outputs": [
        {
          "components": [
            {
              "internalType": "address",
              "name": "id",
              "type": "address"
            },
            {
              "internalType": "string",
              "name": "name",
              "type": "string"
            },
            {
              "internalType": "string",
              "name": "message",
              "type": "string"
            },
            {
              "internalType": "uint256",
              "name": "time",
              "type": "uint256"
            }
          ],
          "internalType": "struct Guestbook.Signature[]",
          "name": "",
          "type": "tuple[]"
        }
      ],
      "stateMutability": "view",
      "type": "function"
    },
    {
      "inputs": [
        {
          "internalType": "address",
          "name": "",
          "type": "address"
        }
      ],
      "name": "guestbookAddressesLog",
      "outputs": [
        {
          "internalType": "bool",
          "name": "",
          "type": "bool"
        }
      ],
      "stateMutability": "view",
      "type": "function"
    },
    {
      "inputs": [
        {
          "internalType": "uint256",
          "name": "",
          "type": "uint256"
        }
      ],
      "name": "guestbookSignatures",
      "outputs": [
        {
          "internalType": "address",
          "name": "id",
          "type": "address"
        },
        {
          "internalType": "string",
          "name": "name",
          "type": "string"
        },
        {
          "internalType": "string",
          "name": "message",
          "type": "string"
        },
        {
          "internalType": "uint256",
          "name": "time",
          "type": "uint256"
        }
      ],
      "stateMutability": "view",
      "type": "function"
    },
    {
      "inputs": [],
      "name": "maxLengthOfMessage",
      "outputs": [
        {
          "internalType": "uint8",
          "name": "",
          "type": "uint8"
        }
      ],
      "stateMutability": "view",
      "type": "function"
    },
    {
      "inputs": [],
      "name": "maxLengthOfName",
      "outputs": [
        {
          "internalType": "uint8",
          "name": "",
          "type": "uint8"
        }
      ],
      "stateMutability": "view",
      "type": "function"
    },
    {
      "inputs": [],
      "name": "maxNumberOfSignatures",
      "outputs": [
        {
          "internalType": "uint8",
          "name": "",
          "type": "uint8"
        }
      ],
      "stateMutability": "view",
      "type": "function"
    },
    {
      "inputs": [],
      "name": "numberOfSignatures",
      "outputs": [
        {
          "internalType": "uint8",
          "name": "",
          "type": "uint8"
        }
      ],
      "stateMutability": "view",
      "type": "function"
    },
    {
      "inputs": [
        {
          "internalType": "string",
          "name": "_name",
          "type": "string"
        },
        {
          "internalType": "string",
          "name": "_message",
          "type": "string"
        }
      ],
      "name": "signGuestbook",
      "outputs": [],
      "stateMutability": "nonpayable",
      "type": "function"
    }
  ],
  "bytecode": "0x60806040523480156200001157600080fd5b50604051620016ec380380620016ec8339818101604052810190620000379190620000d3565b826000806101000a81548160ff021916908360ff16021790555081600060016101000a81548160ff021916908360ff16021790555080600060026101000a81548160ff021916908360ff1602179055505050506200012f565b600080fd5b600060ff82169050919050565b620000ad8162000095565b8114620000b957600080fd5b50565b600081519050620000cd81620000a2565b92915050565b600080600060608486031215620000ef57620000ee62000090565b5b6000620000ff86828701620000bc565b93505060206200011286828701620000bc565b92505060406200012586828701620000bc565b9150509250925092565b6115ad806200013f6000396000f3fe608060405234801561001057600080fd5b50600436106100885760003560e01c806352dbaba31161005b57806352dbaba31461011557806361869e4e1461013357806391a16b7014610151578063ce2a79eb1461018457610088565b80630ffcb0701461008d57806329fd8a12146100a95780632f03b5e4146100c757806331f260cc146100e5575b600080fd5b6100a760048036038101906100a29190610aa2565b6101a2565b005b6100b161058b565b6040516100be9190610b36565b60405180910390f35b6100cf61059c565b6040516100dc9190610d56565b60405180910390f35b6100ff60048036038101906100fa9190610da4565b61077f565b60405161010c9190610dec565b60405180910390f35b61011d61079f565b60405161012a9190610b36565b60405180910390f35b61013b6107b2565b6040516101489190610b36565b60405180910390f35b61016b60048036038101906101669190610e33565b6107c5565b60405161017b9493929190610ec8565b60405180910390f35b61018c610935565b6040516101999190610b36565b60405180910390f35b60008054906101000a900460ff1660ff16600060039054906101000a900460ff1660ff1610610206576040517f08c379a00000000000000000000000000000000000000000000000000000000081526004016101fd90610f67565b60405180910390fd5b600082511161024a576040517f08c379a000000000000000000000000000000000000000000000000000000000815260040161024190610fd3565b60405180910390fd5b600060019054906101000a900460ff1660ff16825111156102a0576040517f08c379a00000000000000000000000000000000000000000000000000000000081526004016102979061103f565b60405180910390fd5b60008151116102e4576040517f08c379a00000000000000000000000000000000000000000000000000000000081526004016102db906110ab565b60405180910390fd5b600060029054906101000a900460ff1660ff16815111610339576040517f08c379a000000000000000000000000000000000000000000000000000000000815260040161033090611117565b60405180910390fd5b60001515600260003373ffffffffffffffffffffffffffffffffffffffff1673ffffffffffffffffffffffffffffffffffffffff16815260200190815260200160002060009054906101000a900460ff161515146103cc576040517f08c379a00000000000000000000000000000000000000000000000000000000081526004016103c3906111a9565b60405180910390fd5b600160405180608001604052803373ffffffffffffffffffffffffffffffffffffffff16815260200184815260200183815260200142815250908060018154018082558091505060019003906000526020600020906004020160009091909190915060008201518160000160006101000a81548173ffffffffffffffffffffffffffffffffffffffff021916908373ffffffffffffffffffffffffffffffffffffffff160217905550602082015181600101908161048a91906113d5565b5060408201518160020190816104a091906113d5565b506060820151816003015550506001600260003373ffffffffffffffffffffffffffffffffffffffff1673ffffffffffffffffffffffffffffffffffffffff16815260200190815260200160002060006101000a81548160ff0219169083151502179055506001600060039054906101000a900460ff1661052191906114d6565b600060036101000a81548160ff021916908360ff1602179055503373ffffffffffffffffffffffffffffffffffffffff167f1d3cd7843983de112f5334f98597875ce57f63bb42b5a231afb1792dd92227c460405161057f90611557565b60405180910390a25050565b60008054906101000a900460ff1681565b60606001805480602002602001604051908101604052809291908181526020016000905b8282101561077657838290600052602060002090600402016040518060800160405290816000820160009054906101000a900473ffffffffffffffffffffffffffffffffffffffff1673ffffffffffffffffffffffffffffffffffffffff1673ffffffffffffffffffffffffffffffffffffffff168152602001600182018054610649906111f8565b80601f0160208091040260200160405190810160405280929190818152602001828054610675906111f8565b80156106c25780601f10610697576101008083540402835291602001916106c2565b820191906000526020600020905b8154815290600101906020018083116106a557829003601f168201915b505050505081526020016002820180546106db906111f8565b80601f0160208091040260200160405190810160405280929190818152602001828054610707906111f8565b80156107545780601f1061072957610100808354040283529160200191610754565b820191906000526020600020905b81548152906001019060200180831161073757829003601f168201915b50505050508152602001600382015481525050815260200190600101906105c0565b50505050905090565b60026020528060005260406000206000915054906101000a900460ff1681565b600060039054906101000a900460ff1681565b600060029054906101000a900460ff1681565b600181815481106107d557600080fd5b90600052602060002090600402016000915090508060000160009054906101000a900473ffffffffffffffffffffffffffffffffffffffff169080600101805461081e906111f8565b80601f016020809104026020016040519081016040528092919081815260200182805461084a906111f8565b80156108975780601f1061086c57610100808354040283529160200191610897565b820191906000526020600020905b81548152906001019060200180831161087a57829003601f168201915b5050505050908060020180546108ac906111f8565b80601f01602080910402602001604051908101604052809291908181526020018280546108d8906111f8565b80156109255780601f106108fa57610100808354040283529160200191610925565b820191906000526020600020905b81548152906001019060200180831161090857829003601f168201915b5050505050908060030154905084565b600060019054906101000a900460ff1681565b6000604051905090565b600080fd5b600080fd5b600080fd5b600080fd5b6000601f19601f8301169050919050565b7f4e487b7100000000000000000000000000000000000000000000000000000000600052604160045260246000fd5b6109af82610966565b810181811067ffffffffffffffff821117156109ce576109cd610977565b5b80604052505050565b60006109e1610948565b90506109ed82826109a6565b919050565b600067ffffffffffffffff821115610a0d57610a0c610977565b5b610a1682610966565b9050602081019050919050565b82818337600083830152505050565b6000610a45610a40846109f2565b6109d7565b905082815260208101848484011115610a6157610a60610961565b5b610a6c848285610a23565b509392505050565b600082601f830112610a8957610a8861095c565b5b8135610a99848260208601610a32565b91505092915050565b60008060408385031215610ab957610ab8610952565b5b600083013567ffffffffffffffff811115610ad757610ad6610957565b5b610ae385828601610a74565b925050602083013567ffffffffffffffff811115610b0457610b03610957565b5b610b1085828601610a74565b9150509250929050565b600060ff82169050919050565b610b3081610b1a565b82525050565b6000602082019050610b4b6000830184610b27565b92915050565b600081519050919050565b600082825260208201905092915050565b6000819050602082019050919050565b600073ffffffffffffffffffffffffffffffffffffffff82169050919050565b6000610ba882610b7d565b9050919050565b610bb881610b9d565b82525050565b600081519050919050565b600082825260208201905092915050565b60005b83811015610bf8578082015181840152602081019050610bdd565b60008484015250505050565b6000610c0f82610bbe565b610c198185610bc9565b9350610c29818560208601610bda565b610c3281610966565b840191505092915050565b6000819050919050565b610c5081610c3d565b82525050565b6000608083016000830151610c6e6000860182610baf565b5060208301518482036020860152610c868282610c04565b91505060408301518482036040860152610ca08282610c04565b9150506060830151610cb56060860182610c47565b508091505092915050565b6000610ccc8383610c56565b905092915050565b6000602082019050919050565b6000610cec82610b51565b610cf68185610b5c565b935083602082028501610d0885610b6d565b8060005b85811015610d445784840389528151610d258582610cc0565b9450610d3083610cd4565b925060208a01995050600181019050610d0c565b50829750879550505050505092915050565b60006020820190508181036000830152610d708184610ce1565b905092915050565b610d8181610b9d565b8114610d8c57600080fd5b50565b600081359050610d9e81610d78565b92915050565b600060208284031215610dba57610db9610952565b5b6000610dc884828501610d8f565b91505092915050565b60008115159050919050565b610de681610dd1565b82525050565b6000602082019050610e016000830184610ddd565b92915050565b610e1081610c3d565b8114610e1b57600080fd5b50565b600081359050610e2d81610e07565b92915050565b600060208284031215610e4957610e48610952565b5b6000610e5784828501610e1e565b91505092915050565b610e6981610b9d565b82525050565b600082825260208201905092915050565b6000610e8b82610bbe565b610e958185610e6f565b9350610ea5818560208601610bda565b610eae81610966565b840191505092915050565b610ec281610c3d565b82525050565b6000608082019050610edd6000830187610e60565b8181036020830152610eef8186610e80565b90508181036040830152610f038185610e80565b9050610f126060830184610eb9565b95945050505050565b7f546865206775657374626f6f6b2069732066696c6c6564210000000000000000600082015250565b6000610f51601883610e6f565b9150610f5c82610f1b565b602082019050919050565b60006020820190508181036000830152610f8081610f44565b9050919050565b7f506c6561736520656e74657220796f7572206e616d6521000000000000000000600082015250565b6000610fbd601783610e6f565b9150610fc882610f87565b602082019050919050565b60006020820190508181036000830152610fec81610fb0565b9050919050565b7f506c6561736520656e74657220612073686f72746572206e616d652100000000600082015250565b6000611029601c83610e6f565b915061103482610ff3565b602082019050919050565b600060208201905081810360008301526110588161101c565b9050919050565b7f506c6561736520656e7465722061206d65737361676521000000000000000000600082015250565b6000611095601783610e6f565b91506110a08261105f565b602082019050919050565b600060208201905081810360008301526110c481611088565b9050919050565b7f506c6561736520656e74657220612073686f72746572206d6573736167652100600082015250565b6000611101601f83610e6f565b915061110c826110cb565b602082019050919050565b60006020820190508181036000830152611130816110f4565b9050919050565b7f596f75206861766520616c7265616479207369676e656420746865206775657360008201527f74626f6f6b210000000000000000000000000000000000000000000000000000602082015250565b6000611193602683610e6f565b915061119e82611137565b604082019050919050565b600060208201905081810360008301526111c281611186565b9050919050565b7f4e487b7100000000000000000000000000000000000000000000000000000000600052602260045260246000fd5b6000600282049050600182168061121057607f821691505b602082108103611223576112226111c9565b5b50919050565b60008190508160005260206000209050919050565b60006020601f8301049050919050565b600082821b905092915050565b60006008830261128b7fffffffffffffffffffffffffffffffffffffffffffffffffffffffffffffffff8261124e565b611295868361124e565b95508019841693508086168417925050509392505050565b6000819050919050565b60006112d26112cd6112c884610c3d565b6112ad565b610c3d565b9050919050565b6000819050919050565b6112ec836112b7565b6113006112f8826112d9565b84845461125b565b825550505050565b600090565b611315611308565b6113208184846112e3565b505050565b5b818110156113445761133960008261130d565b600181019050611326565b5050565b601f8211156113895761135a81611229565b6113638461123e565b81016020851015611372578190505b61138661137e8561123e565b830182611325565b50505b505050565b600082821c905092915050565b60006113ac6000198460080261138e565b1980831691505092915050565b60006113c5838361139b565b9150826002028217905092915050565b6113de82610bbe565b67ffffffffffffffff8111156113f7576113f6610977565b5b61140182546111f8565b61140c828285611348565b600060209050601f83116001811461143f576000841561142d578287015190505b61143785826113b9565b86555061149f565b601f19841661144d86611229565b60005b8281101561147557848901518255600182019150602085019450602081019050611450565b86831015611492578489015161148e601f89168261139b565b8355505b6001600288020188555050505b505050505050565b7f4e487b7100000000000000000000000000000000000000000000000000000000600052601160045260246000fd5b60006114e182610b1a565b91506114ec83610b1a565b9250828201905060ff811115611505576115046114a7565b5b92915050565b7f4775657374626f6f6b207369676e656421000000000000000000000000000000600082015250565b6000611541601183610e6f565b915061154c8261150b565b602082019050919050565b6000602082019050818103600083015261157081611534565b905091905056fea2646970667358221220d30bfc5f4e70890389bf05dec8c6c796ccae2dfb4cb77a6b97233e7dd3a3a13c64736f6c63430008110033",
  "linkReferences": {},
  "deployedLinkReferences": {}
}