{
  "_format": "hh-sol-artifact-1",
  "contractName": "Guestbook",
  "sourceName": "contracts/Guestbook.sol",
  "abi": [
    {
      "inputs": [
        {
          "internalType": "uint256",
          "name": "_maxNumSign",
          "type": "uint256"
        },
        {
          "internalType": "uint256",
          "name": "_maxNameLength",
          "type": "uint256"
        },
        {
          "internalType": "uint256",
          "name": "_maxMsgLength",
          "type": "uint256"
        }
      ],
      "stateMutability": "nonpayable",
      "type": "constructor"
    },
    {
      "anonymous": false,
      "inputs": [
        {
          "indexed": true,
          "internalType": "address",
          "name": "addr",
          "type": "address"
        },
        {
          "indexed": false,
          "internalType": "uint256",
          "name": "timestamp",
          "type": "uint256"
        }
      ],
      "name": "SignatureCreated",
      "type": "event"
    },
    {
      "inputs": [],
      "name": "MAX_MSG_LENGTH",
      "outputs": [
        {
          "internalType": "uint256",
          "name": "",
          "type": "uint256"
        }
      ],
      "stateMutability": "view",
      "type": "function"
    },
    {
      "inputs": [],
      "name": "MAX_NAME_LENGTH",
      "outputs": [
        {
          "internalType": "uint256",
          "name": "",
          "type": "uint256"
        }
      ],
      "stateMutability": "view",
      "type": "function"
    },
    {
      "inputs": [],
      "name": "MAX_NUM_SIGN",
      "outputs": [
        {
          "internalType": "uint256",
          "name": "",
          "type": "uint256"
        }
      ],
      "stateMutability": "view",
      "type": "function"
    },
    {
      "inputs": [
        {
          "internalType": "string",
          "name": "_msg",
          "type": "string"
        },
        {
          "internalType": "string",
          "name": "_name",
          "type": "string"
        }
      ],
      "name": "addSignature",
      "outputs": [],
      "stateMutability": "nonpayable",
      "type": "function"
    },
    {
      "inputs": [],
      "name": "getAllSignatures",
      "outputs": [
        {
          "components": [
            {
              "internalType": "address",
              "name": "addr",
              "type": "address"
            },
            {
              "internalType": "string",
              "name": "message",
              "type": "string"
            },
            {
              "internalType": "string",
              "name": "name",
              "type": "string"
            },
            {
              "internalType": "uint256",
              "name": "timestamp",
              "type": "uint256"
            }
          ],
          "internalType": "struct Guestbook.Signature[]",
          "name": "",
          "type": "tuple[]"
        }
      ],
      "stateMutability": "view",
      "type": "function"
    },
    {
      "inputs": [],
      "name": "getHasUserSigned",
      "outputs": [
        {
          "internalType": "bool",
          "name": "",
          "type": "bool"
        }
      ],
      "stateMutability": "view",
      "type": "function"
    },
    {
      "inputs": [],
      "name": "numOfSign",
      "outputs": [
        {
          "internalType": "uint256",
          "name": "",
          "type": "uint256"
        }
      ],
      "stateMutability": "view",
      "type": "function"
    },
    {
      "inputs": [
        {
          "internalType": "address",
          "name": "",
          "type": "address"
        }
      ],
      "name": "signatureLog",
      "outputs": [
        {
          "internalType": "bool",
          "name": "",
          "type": "bool"
        }
      ],
      "stateMutability": "view",
      "type": "function"
    },
    {
      "inputs": [
        {
          "internalType": "uint256",
          "name": "",
          "type": "uint256"
        }
      ],
      "name": "signatures",
      "outputs": [
        {
          "internalType": "address",
          "name": "addr",
          "type": "address"
        },
        {
          "internalType": "string",
          "name": "message",
          "type": "string"
        },
        {
          "internalType": "string",
          "name": "name",
          "type": "string"
        },
        {
          "internalType": "uint256",
          "name": "timestamp",
          "type": "uint256"
        }
      ],
      "stateMutability": "view",
      "type": "function"
    }
  ],
  "bytecode": "0x60e06040523480156200001157600080fd5b506040516200130f3803806200130f83398181016040528101906200003791906200011c565b600083116200004557600080fd5b6000821180156200007657507fffffffffffffffffffffffffffffffffffffffffffffffffffffffffffffffff8211155b6200008057600080fd5b600081118015620000b157507fffffffffffffffffffffffffffffffffffffffffffffffffffffffffffffffff8111155b620000bb57600080fd5b82608081815250508160a081815250508060c0818152505050505062000178565b600080fd5b6000819050919050565b620000f681620000e1565b81146200010257600080fd5b50565b6000815190506200011681620000eb565b92915050565b600080600060608486031215620001385762000137620000dc565b5b6000620001488682870162000105565b93505060206200015b8682870162000105565b92505060406200016e8682870162000105565b9150509250925092565b60805160a05160c051611160620001af60003960006103fb0152600061042501526000818161022a015261079c01526111606000f3fe608060405234801561001057600080fd5b50600436106100935760003560e01c80638be10194116100665780638be101941461010e578063906b6d9814610141578063abf6b1001461015f578063c7c1bfe31461017d578063ce9b8c7e146101ad57610093565b80630a0c5e0d14610098578063238fb1da146100b457806375a58f5e146100d257806386074985146100f0575b600080fd5b6100b260048036038101906100ad919061098c565b6101cb565b005b6100bc6103f9565b6040516100c99190610a1d565b60405180910390f35b6100da61041d565b6040516100e79190610a1d565b60405180910390f35b6100f8610423565b6040516101059190610a1d565b60405180910390f35b61012860048036038101906101239190610a64565b610447565b6040516101389493929190610b51565b60405180910390f35b6101496105b7565b6040516101569190610d38565b60405180910390f35b61016761079a565b6040516101749190610a1d565b60405180910390f35b61019760048036038101906101929190610d86565b6107be565b6040516101a49190610dce565b60405180910390f35b6101b56107de565b6040516101c29190610dce565b60405180910390f35b60001515600160003373ffffffffffffffffffffffffffffffffffffffff1673ffffffffffffffffffffffffffffffffffffffff16815260200190815260200160002060009054906101000a900460ff1615151461022857600080fd5b7f00000000000000000000000000000000000000000000000000000000000000006000541061025657600080fd5b600260405180608001604052803373ffffffffffffffffffffffffffffffffffffffff16815260200184815260200183815260200142815250908060018154018082558091505060019003906000526020600020906004020160009091909190915060008201518160000160006101000a81548173ffffffffffffffffffffffffffffffffffffffff021916908373ffffffffffffffffffffffffffffffffffffffff16021790555060208201518160010190816103149190610ff5565b50604082015181600201908161032a9190610ff5565b5060608201518160030155505060018060003373ffffffffffffffffffffffffffffffffffffffff1673ffffffffffffffffffffffffffffffffffffffff16815260200190815260200160002060006101000a81548160ff02191690831515021790555060016000808282546103a091906110f6565b925050819055503373ffffffffffffffffffffffffffffffffffffffff167ff6f22f338bb606117a6071a6b8b7ffdb0f389702abe4f8e66b6df93041eeec07426040516103ed9190610a1d565b60405180910390a25050565b7f000000000000000000000000000000000000000000000000000000000000000081565b60005481565b7f000000000000000000000000000000000000000000000000000000000000000081565b6002818154811061045757600080fd5b90600052602060002090600402016000915090508060000160009054906101000a900473ffffffffffffffffffffffffffffffffffffffff16908060010180546104a090610e18565b80601f01602080910402602001604051908101604052809291908181526020018280546104cc90610e18565b80156105195780601f106104ee57610100808354040283529160200191610519565b820191906000526020600020905b8154815290600101906020018083116104fc57829003601f168201915b50505050509080600201805461052e90610e18565b80601f016020809104026020016040519081016040528092919081815260200182805461055a90610e18565b80156105a75780601f1061057c576101008083540402835291602001916105a7565b820191906000526020600020905b81548152906001019060200180831161058a57829003601f168201915b5050505050908060030154905084565b60606002805480602002602001604051908101604052809291908181526020016000905b8282101561079157838290600052602060002090600402016040518060800160405290816000820160009054906101000a900473ffffffffffffffffffffffffffffffffffffffff1673ffffffffffffffffffffffffffffffffffffffff1673ffffffffffffffffffffffffffffffffffffffff16815260200160018201805461066490610e18565b80601f016020809104026020016040519081016040528092919081815260200182805461069090610e18565b80156106dd5780601f106106b2576101008083540402835291602001916106dd565b820191906000526020600020905b8154815290600101906020018083116106c057829003601f168201915b505050505081526020016002820180546106f690610e18565b80601f016020809104026020016040519081016040528092919081815260200182805461072290610e18565b801561076f5780601f106107445761010080835404028352916020019161076f565b820191906000526020600020905b81548152906001019060200180831161075257829003601f168201915b50505050508152602001600382015481525050815260200190600101906105db565b50505050905090565b7f000000000000000000000000000000000000000000000000000000000000000081565b60016020528060005260406000206000915054906101000a900460ff1681565b6000600160003373ffffffffffffffffffffffffffffffffffffffff1673ffffffffffffffffffffffffffffffffffffffff16815260200190815260200160002060009054906101000a900460ff16905090565b6000604051905090565b600080fd5b600080fd5b600080fd5b600080fd5b6000601f19601f8301169050919050565b7f4e487b7100000000000000000000000000000000000000000000000000000000600052604160045260246000fd5b61089982610850565b810181811067ffffffffffffffff821117156108b8576108b7610861565b5b80604052505050565b60006108cb610832565b90506108d78282610890565b919050565b600067ffffffffffffffff8211156108f7576108f6610861565b5b61090082610850565b9050602081019050919050565b82818337600083830152505050565b600061092f61092a846108dc565b6108c1565b90508281526020810184848401111561094b5761094a61084b565b5b61095684828561090d565b509392505050565b600082601f83011261097357610972610846565b5b813561098384826020860161091c565b91505092915050565b600080604083850312156109a3576109a261083c565b5b600083013567ffffffffffffffff8111156109c1576109c0610841565b5b6109cd8582860161095e565b925050602083013567ffffffffffffffff8111156109ee576109ed610841565b5b6109fa8582860161095e565b9150509250929050565b6000819050919050565b610a1781610a04565b82525050565b6000602082019050610a326000830184610a0e565b92915050565b610a4181610a04565b8114610a4c57600080fd5b50565b600081359050610a5e81610a38565b92915050565b600060208284031215610a7a57610a7961083c565b5b6000610a8884828501610a4f565b91505092915050565b600073ffffffffffffffffffffffffffffffffffffffff82169050919050565b6000610abc82610a91565b9050919050565b610acc81610ab1565b82525050565b600081519050919050565b600082825260208201905092915050565b60005b83811015610b0c578082015181840152602081019050610af1565b60008484015250505050565b6000610b2382610ad2565b610b2d8185610add565b9350610b3d818560208601610aee565b610b4681610850565b840191505092915050565b6000608082019050610b666000830187610ac3565b8181036020830152610b788186610b18565b90508181036040830152610b8c8185610b18565b9050610b9b6060830184610a0e565b95945050505050565b600081519050919050565b600082825260208201905092915050565b6000819050602082019050919050565b610bd981610ab1565b82525050565b600082825260208201905092915050565b6000610bfb82610ad2565b610c058185610bdf565b9350610c15818560208601610aee565b610c1e81610850565b840191505092915050565b610c3281610a04565b82525050565b6000608083016000830151610c506000860182610bd0565b5060208301518482036020860152610c688282610bf0565b91505060408301518482036040860152610c828282610bf0565b9150506060830151610c976060860182610c29565b508091505092915050565b6000610cae8383610c38565b905092915050565b6000602082019050919050565b6000610cce82610ba4565b610cd88185610baf565b935083602082028501610cea85610bc0565b8060005b85811015610d265784840389528151610d078582610ca2565b9450610d1283610cb6565b925060208a01995050600181019050610cee565b50829750879550505050505092915050565b60006020820190508181036000830152610d528184610cc3565b905092915050565b610d6381610ab1565b8114610d6e57600080fd5b50565b600081359050610d8081610d5a565b92915050565b600060208284031215610d9c57610d9b61083c565b5b6000610daa84828501610d71565b91505092915050565b60008115159050919050565b610dc881610db3565b82525050565b6000602082019050610de36000830184610dbf565b92915050565b7f4e487b7100000000000000000000000000000000000000000000000000000000600052602260045260246000fd5b60006002820490506001821680610e3057607f821691505b602082108103610e4357610e42610de9565b5b50919050565b60008190508160005260206000209050919050565b60006020601f8301049050919050565b600082821b905092915050565b600060088302610eab7fffffffffffffffffffffffffffffffffffffffffffffffffffffffffffffffff82610e6e565b610eb58683610e6e565b95508019841693508086168417925050509392505050565b6000819050919050565b6000610ef2610eed610ee884610a04565b610ecd565b610a04565b9050919050565b6000819050919050565b610f0c83610ed7565b610f20610f1882610ef9565b848454610e7b565b825550505050565b600090565b610f35610f28565b610f40818484610f03565b505050565b5b81811015610f6457610f59600082610f2d565b600181019050610f46565b5050565b601f821115610fa957610f7a81610e49565b610f8384610e5e565b81016020851015610f92578190505b610fa6610f9e85610e5e565b830182610f45565b50505b505050565b600082821c905092915050565b6000610fcc60001984600802610fae565b1980831691505092915050565b6000610fe58383610fbb565b9150826002028217905092915050565b610ffe82610ad2565b67ffffffffffffffff81111561101757611016610861565b5b6110218254610e18565b61102c828285610f68565b600060209050601f83116001811461105f576000841561104d578287015190505b6110578582610fd9565b8655506110bf565b601f19841661106d86610e49565b60005b8281101561109557848901518255600182019150602085019450602081019050611070565b868310156110b257848901516110ae601f891682610fbb565b8355505b6001600288020188555050505b505050505050565b7f4e487b7100000000000000000000000000000000000000000000000000000000600052601160045260246000fd5b600061110182610a04565b915061110c83610a04565b9250828201905080821115611124576111236110c7565b5b9291505056fea2646970667358221220d787fd3a9d7d7de6650921432e9f31f6dff9723b06c4be19e51c1d32a1161abc64736f6c63430008110033",
  "linkReferences": {},
  "deployedLinkReferences": {}
}